:100000000C9446000C9465000C9465000C946500FB
:100010000C9465000C9465000C9465000C946500CC
:100020000C9465000C9465000C9465000C946500BC
:100030000C9465000C945F030C9465000C946500AF
:100040000C9465000C9465000C9465000C9465009C
:100050000C9465000C9465000C9465000C9465008C
:100060000C9465000C9465000C9465000C9465007C
:100070000C9465000C9465000C9465000C9465006C
:100080000C9465000C9465000C94650011241FBE4F
:10009000CFEFD0E4DEBFCDBF11E0A0E0B1E0ECEEE9
:1000A000FFE000E00BBF02C007900D92A034B10743
:1000B000D9F711E0A0E4B1E001C01D92A936B10763
:1000C000E1F70E945E060C94F4070C940000CF93B5
:1000D000DF93CDB7DEB760970FB6F894DEBF0FBEE3
:1000E000CDBF6D837E838F83988729873A874B871F
:1000F0005C878D819E81AF81B88529853A854B8546
:100100005C85BC01CD010E94D207DC01CB01898353
:100110009A83AB83BC8389819A81AB81BC81009730
:10012000A105B10529F489859A85AB85BC8511C0E7
:1001300089859A85AB85BC858D839E83AF83B8877F
:1001400089819A81AB81BC8189879A87AB87BC877B
:10015000D0CFBC01CD0160960FB6F894DEBF0FBEC4
:10016000CDBFDF91CF910895CF93DF9300D01F9241
:10017000CDB7DEB789836A834B838B81882379F07F
:100180008A81282F30E081E090E0022E02C0880FA3
:10019000991F0A94E2F7982F8981892B0FC08A81D1
:1001A000282F30E081E090E0022E02C0880F991FD6
:1001B0000A94E2F7982F9095898189230F900F90E8
:1001C0000F90DF91CF910895CF93DF9300D0CDB7FB
:1001D000DEB789836A838A81282F30E081E090E04E
:1001E000022E02C0880F991F0A94E2F7982F898186
:1001F00089230F900F90DF91CF910895CF93DF93D4
:10020000CDB7DEB781E00E942301DF91CF91089541
:10021000CF93DF93CDB7DEB784E690E00E94C301B1
:1002200088E30E94230186E00E9423018FE00E9460
:10023000230181E00E9423018AE090E00E94C30133
:10024000DF91CF910895CF93DF931F92CDB7DEB7A3
:1002500089838BE290E02BE230E0F90120812F7B53
:10026000FC01208388E290E02981FC0120838BE25D
:1002700090E02BE230E0F90120812068FC0120832E
:1002800000008BE290E02BE230E0F90120812F7733
:10029000FC01208382E090E00E94C3010F90DF9177
:1002A000CF910895CF93DF931F92CDB7DEB78983A7
:1002B0008BE290E02BE230E0F90120812064FC0128
:1002C000208388E290E02981FC0120838BE290E08A
:1002D0002BE230E0F90120812068FC01208300003E
:1002E0008BE290E02BE230E0F90120812F77FC01D6
:1002F000208381E090E00E94C3010F90DF91CF91B5
:100300000895CF93DF9300D000D0CDB7DEB78A83B6
:100310007C836B830E94FE008A81898311C089815E
:1003200091E0980F99830E94AD018B819C819C0183
:100330002F5F3F4F3C832B83FC0180810E94520141
:100340008B819C81FC018081882349F70F900F905D
:100350000F900F90DF91CF910895CF93DF931F926D
:10036000CDB7DEB789838981813128F489818158AD
:100370000E94230104C0898181550E9423010F90AE
:10038000DF91CF910895CF93DF9300D000D000D0BC
:10039000CDB7DEB79E838D831A82198214C01C826A
:1003A0001B8206C000008B819C8101969C838B83FD
:1003B0008B819C81873023E09207A4F389819A8105
:1003C00001969A83898329813A818D819E8128179C
:1003D00039072CF326960FB6F894DEBF0FBECDBFBB
:1003E000DF91CF9108950F931F93CF93DF93CDB7F4
:1003F000DEB702E210E040E064E08FEF0E94B4005C
:10040000F8018083000080E290E0FC01808180950B
:1004100060E00E94E400882311F081E3D3C080E211
:1004200090E0FC018081809561E00E94E4008823D7
:1004300011F084E3C7C080E290E0FC0180818095E8
:1004400062E00E94E400882311F087E3BBC080E2F1
:1004500090E0FC018081809563E00E94E4008823A5
:1004600011F08AE2AFC002E210E040E065E08FEFF9
:100470000E94B400F8018083000080E290E0FC015B
:100480008081809560E00E94E400882311F082E37F
:1004900099C080E290E0FC018081809561E00E943B
:1004A000E400882311F085E38DC080E290E0FC0138
:1004B0008081809562E00E94E400882311F088E347
:1004C00081C080E290E0FC018081809563E00E9421
:1004D000E400882311F080E375C002E210E040E000
:1004E00066E08FEF0E94B400F8018083000080E294
:1004F00090E0FC018081809560E00E94E400882308
:1005000011F083E35FC080E290E0FC018081809580
:1005100061E00E94E400882311F086E353C080E28A
:1005200090E0FC018081809562E00E94E4008823D5
:1005300011F089E347C080E290E0FC018081809562
:1005400063E00E94E400882311F083E23BC002E2F2
:1005500010E040E067E08FEF0E94B400F801808374
:10056000000080E290E0FC018081809560E00E94C4
:10057000E400882311F081E425C080E290E0FC01D2
:100580008081809561E00E94E400882311F082E47C
:1005900019C080E290E0FC018081809562E00E94B9
:1005A000E400882311F083E40DC080E290E0FC01B8
:1005B0008081809563E00E94E400882311F084E448
:1005C00001C080E0DF91CF911F910F910895CF93EB
:1005D000DF9300D000D0CDB7DEB769837A838B83F9
:1005E0009C8389819A81AB81BC8180930001909327
:1005F0000101A0930201B093030180910001909149
:100600000101A0910201B0910301809341019093F7
:100610004201A0934301B09344010F900F900F90BB
:100620000F90DF91CF910895CF93DF93CDB7DEB7D1
:1006300081E890E02BE0FC01208388E890E02DE742
:1006400030E0FC01318320838FE690E022E0FC0162
:10065000208384E890E0FC011182108280910001E7
:1006600090910101A0910201B09103018093410199
:1006700090934201A0934301B09344018FE590E031
:100680002FE530E0F90120812068FC012083DF9113
:10069000CF910895CF93DF93CDB7DEB781E890E097
:1006A000FC011082DF91CF910895CF93DF93CDB7F6
:1006B000DEB781E080934001DF91CF9108951F92D2
:1006C0000F9200905F000F92112400905B000F9238
:1006D0002F933F934F935F936F937F938F939F934A
:1006E000AF93BF93EF93FF93CF93DF93CDB7DEB775
:1006F0008091410190914201A0914301B091440148
:100700000197A109B1098093410190934201A093FF
:100710004301B09344018091410190914201A09125
:100720004301B09144010097A105B10591F40E94E5
:1007300055038091000190910101A0910201B091B7
:1007400003018093410190934201A0934301B09330
:100750004401DF91CF91FF91EF91BF91AF919F91B4
:100760008F917F916F915F914F913F912F910F905A
:1007700000925B000F9000925F000F901F90189501
:10078000CF93DF93CDB7DEB70E94FE00DF91CF910C
:100790000895CF93DF93CDB7DEB71092450127C000
:1007A00080914501882F90E0865F9E4FFC018081FB
:1007B000882351F480914501882F90E0865F9E4FF9
:1007C0002FE0FC0120830EC080914501882F90E02E
:1007D0009C01265F3E4FF90120812150865F9E4F8C
:1007E000FC012083809145018F5F809345018091BA
:1007F00045018430A8F2DF91CF910895CF93DF9324
:1008000000D01F92CDB7DEB789836A834B8389817D
:10081000882F90E00197982F892F880F890F982FA4
:10082000990F990F980F8A81890F8F5F0E94AD01F0
:100830008B810E9452010F900F900F90DF91CF910A
:100840000895CF93DF93CDB7DEB71092450112C064
:1008500080914501882F90E0865F9E4FFC0180814A
:100860004AE2682F81E00E94FE03809145018F5F7C
:100870008093450180914501823050F382E080935E
:10088000450112C080914501882F90E0865F9E4F00
:10089000FC0180814AE2682F82E00E94FE03809181
:1008A00045018F5F8093450180914501843050F36D
:1008B000DF91CF910895CF93DF93CDB7DEB7E49763
:1008C0000FB6F894DEBF0FBECDBF9CAB8BAB8BA930
:1008D0009CA99A8389838BA99CA98230910519F1DF
:1008E0008330910534F4009761F08130910571F007
:1008F0006EC083309105E1F08430910509F45AC04F
:1009000066C081E090E09CAB8BAB64C080914601F7
:10091000909147018133910529F482E090E09CABEE
:100920008BAB58C057C083E090E09CAB8BAB52C000
:1009300080914601909147018A32910521F481E02E
:1009400090E09CAB8BAB109245012FC080910E01C3
:10095000282F30E080914501882F90E0865F9E4FE0
:10096000FC018081482F50E080914501823018F0D1
:1009700080E190E002C080E090E0480F591F909124
:10098000450181E0923008F080E0882F90E0840FEC
:10099000951F2817390721F484E090E09CAB8BABBE
:1009A000809145018F5F809345018091450184309E
:1009B00068F210C080914601909147018133910502
:1009C00029F481E090E09CAB8BAB04C003C01CAA6F
:1009D0001BAA00008BA99CA982309105C9F1833024
:1009E00091053CF4009709F457C08130910549F016
:1009F00056C08330910509F451C08430910569F1E6
:100A00004EC029813A818BA99CA928173907F9F092
:100A100081E180930E0181E080930A0189E0809357
:100A20000B0185E080930C018DE080930D0180E245
:100A3000EFE0F1E0DE01539601900D928A95E1F727
:100A4000CE014396BC0181E00E94810128C027C0ED
:100A50000E94C0030E94210422C029813A818BA9EF
:100A60009CA928173907D9F08AE0E0E3F1E0DE011C
:100A7000139601900D928A95E1F726E0CE010D962E
:100A8000FC01322F11923A95E9F7CE010396BC0191
:100A900081E00E94810103C0000001C000008BA919
:100AA0009CA9E4960FB6F894DEBF0FBECDBFDF91D0
:100AB000CF910895CF93DF9300D0CDB7DEB79A835F
:100AC000898389819A818130910551F08230910525
:100AD00089F00097E9F481E090E09A8389831BC054
:100AE00080914801833029F482E090E09A838983E1
:100AF00012C011C080914801813021F080914801DD
:100B0000843029F481E090E09A83898304C003C093
:100B10001A821982000089819A818130910519F128
:100B20008230910519F0009701F120C080910E01EB
:100B3000893020F080910E01813140F080910E01CA
:100B4000893180F080910E01813260F40E94C003EF
:100B50000E94C9030E94210480910E01815080935C
:100B60000E0104C003C0000001C0000089819A8109
:100B70000F900F90DF91CF910895CF93DF9300D026
:100B8000CDB7DEB79A8389830E94F301882F90E066
:100B9000909347018093460189819A818130910524
:100BA00091F082309105A1F0009701F58091460106
:100BB0009091470121E0009709F420E0822F90E016
:100BC0009A83898316C082E090E09A83898311C05A
:100BD0008091460190914701009719F480E090E0E0
:100BE00002C082E090E09A83898303C01A8219824E
:100BF000000089819A818130910541F08230910510
:100C000009F452C0009709F451C051C080914601C7
:100C1000909147018533910559F480910E018131FE
:100C200008F441C080910E01805180930E013FC0B5
:100C300080914601909147018833910551F480914C
:100C40000E01813180F580910E01805F80930E014D
:100C50002EC080914601909147018933910571F42E
:100C600080910E018031F9F080910E018F31D9F021
:100C700080910E018F5F80930E0119C08091460113
:100C8000909147018733910571F480910E01813075
:100C900051F080910E01813131F080910E0181502F
:100CA00080930E0104C003C0000001C000008981D0
:100CB0009A810F900F90DF91CF9108950F931F931A
:100CC000CF93DF93CDB7DEB728970FB6F894DEBF8A
:100CD0000FBECDBF87E290E02FEFFC01208388E2BA
:100CE00090E0FC0110828AE290E02FEFFC0120836B
:100CF0008BE290E0FC01108281E290E020EFFC01A9
:100D0000208382E290E02FE0FC0120830E94080112
:100D100083E090E098878F831092480185E090E00F
:100D2000A0E0B0E08093490190934A01A0934B0169
:100D3000B0934C018091490190914A01A0914B01DF
:100D4000B0914C0180934D0190934E01A0934F01BF
:100D5000B09350018BE594E0909352018093510140
:100D60001092530185E090E0A0E0B0E08093540140
:100D700090935501A0935601B0935701809154016F
:100D800090915501A0915601B0915701809358015F
:100D900090935901A0935A01B0935B018AE595E0C5
:100DA00090935D0180935C0110925E0185E090E07C
:100DB000A0E0B0E080935F0190936001A093610197
:100DC000B093620180915F0190916001A0916101F7
:100DD000B09162018093630190936401A0936501D7
:100DE000B09366018DEB95E0909368018093670165
:100DF0008091040190910501FC0181819281A38180
:100E0000B48189839A83AB83BC8381E090E09E8325
:100E10008D8321C08D819E81880F991F8C5F9E4F8D
:100E2000FC0180819181FC0181819281A381B48147
:100E300029813A814B815C81BC01CD010E94670010
:100E4000DC01CB0189839A83AB83BC838D819E8136
:100E500001969E838D832D813E818F8198852817F1
:100E60003907C0F289819A81AB81BC81BC01CD0177
:100E70000E94E7020E9414031E821D827FC08D81A2
:100E80009E81880F991F8C5F9E4FFC01808191810C
:100E9000FC0125813681478150858D819E81880F97
:100EA000991F8C5F9E4FFC0180819181FC018181A3
:100EB0009281A381B481281739074A075B07A9F5F6
:100EC0008D819E81880F991F8C5F9E4FFC01008150
:100ED00011818D819E81880F991F8C5F9E4FFC012F
:100EE00080819181FC01218532858D819E81880FD1
:100EF000991F8C5F9E4FFC0180819181FC01808154
:100F0000992787FD9095F9010995F80180838D81D6
:100F10009E81880F991F8C5F9E4FFC01808191817B
:100F2000FC0115821682178210868D819E81880FA2
:100F3000991F8C5F9E4FFC01608171818D819E8124
:100F4000880F991F8C5F9E4FFC0180819181FC016D
:100F5000258136814781508589819A81AB81BC8109
:100F6000820F931FA41FB51FFB0185839683A78360
:100F7000B0878D819E8101969E838D832D813E81D8
:100F80008F8198852817390708F479CF80910E0151
:100F90000E94AD010000809140018823E1F310928E
:100FA00040016ACFA1E21A2EAA1BBB1BFD010DC096
:100FB000AA1FBB1FEE1FFF1FA217B307E407F50709
:100FC00020F0A21BB30BE40BF50B661F771F881FE5
:100FD000991F1A9469F760957095809590959B017B
:0C0FE000AC01BD01CF010895F894FFCFD3
:100FEC0001000000480153015E010009050D11507C
:100FFC0072657373203120746F2073746172742066
:10100C0020202020202020202020202020202000F4
:10101C0047616D65204F766572000000000000008E
:00000001FF
