:100000000C9446000C9465000C9465000C946500FB
:100010000C9465000C9465000C9465000C946500CC
:100020000C9465000C9465000C9465000C946500BC
:100030000C9465000C94B3050C9465000C94650059
:100040000C9465000C9465000C9465000C9465009C
:100050000C9465000C9465000C9465000C9465008C
:100060000C9465000C9465000C9465000C9465007C
:100070000C9465000C9465000C9465000C9465006C
:100080000C9465000C9465000C94650011241FBE4F
:10009000CFEFD0E4DEBFCDBF11E0A0E0B1E0E6E4F9
:1000A000FEE100E00BBF02C007900D92AE3EB1072B
:1000B000D9F712E0AEEEB1E001C01D92A233B10754
:1000C000E1F70E944D0C0C94210F0C940000CF938B
:1000D000DF93CDB7DEB760970FB6F894DEBF0FBEE3
:1000E000CDBF6D837E838F83988729873A874B871F
:1000F0005C878D819E81AF81B88529853A854B8546
:100100005C85BC01CD010E943A0EDC01CB018983E4
:100110009A83AB83BC8389819A81AB81BC81009730
:10012000A105B10529F489859A85AB85BC8511C0E7
:1001300089859A85AB85BC858D839E83AF83B8877F
:1001400089819A81AB81BC8189879A87AB87BC877B
:10015000D0CFBC01CD0160960FB6F894DEBF0FBEC4
:10016000CDBFDF91CF910895CF93DF9300D01F9241
:10017000CDB7DEB789836A834B838B81882379F07F
:100180008A81282F30E081E090E0022E02C0880FA3
:10019000991F0A94E2F7982F8981892B0FC08A81D1
:1001A000282F30E081E090E0022E02C0880F991FD6
:1001B0000A94E2F7982F9095898189230F900F90E8
:1001C0000F90DF91CF910895CF93DF9300D0CDB7FB
:1001D000DEB789836A838A81282F30E081E090E04E
:1001E000022E02C0880F991F0A94E2F7982F898186
:1001F00089230F900F90DF91CF910895CF93DF93D4
:10020000CDB7DEB781E00E94A202DF91CF910895C1
:10021000CF93DF9300D000D0CDB7DEB79C838B8324
:100220001A82198205C089819A8101969A838983ED
:100230008B819C81880F991F9C01220F331F220FF5
:10024000331F280F391F89819A81821793075CF326
:100250000F900F900F900F90DF91CF910895CF9353
:10026000DF9300D000D0CDB7DEB79C838B831A829A
:10027000198205C089819A8101969A8389834B816D
:100280005C8188EE93E0489F9001499F300D589F14
:10029000300D112489819A81821793075CF30F90A6
:1002A0000F900F900F90DF91CF910895CF93DF9330
:1002B0001F92CDB7DEB7898388E290E02981FC01E7
:1002C00020838BE290E02BE230E0F90120812F7B4C
:1002D000FC0120838BE290E02BE230E0F9012081E9
:1002E0002F7DFC0120838BE290E02BE230E0F901CE
:1002F00020812068FC01208381E090E00E940801B9
:100300008BE290E02BE230E0F90120812F77FC01B5
:10031000208382E090E00E942F010F90DF91CF9127
:100320000895CF93DF931F92CDB7DEB7898388E21C
:1003300090E02981FC0120838BE290E02BE230E009
:10034000F90120812064FC0120838BE290E02BE204
:1003500030E0F90120812F7DFC0120838BE290E0C9
:100360002BE230E0F90120812068FC01208381E04C
:1003700090E00E9408018BE290E02BE230E0F9016E
:1003800020812F77FC01208382E090E00E942F01E2
:100390000F90DF91CF910895CF93DF93CDB7DEB764
:1003A0008AE290E02FEFFC01208387E290E02FEFBC
:1003B000FC01208384E190E00E942F0188E30E94E9
:1003C00056018CE00E94560186E00E94560181E0B1
:1003D0000E94560182E090E00E942F0180E80E9476
:1003E0005601DF91CF910895CF93DF9300D000D0D5
:1003F000CDB7DEB79C838B831A8219820FC08981A7
:100400009A812B813C81820F931FFC0180810E9485
:10041000910189819A8101969A83898389819A8140
:100420002B813C81820F931FFC018081882339F747
:100430000F900F900F900F90DF91CF910895CF9371
:10044000DF9300D000D0CDB7DEB789836A835C83A9
:100450004B838981882349F48A81803134F48A81ED
:100460008F7080680E9456010BC08981813041F4F1
:100470008A8180312CF48A818F70806C0E945601B1
:100480008B819C810E94F4010F900F900F900F9030
:10049000DF91CF910895CF93DF93CDB7DEB781E0A1
:1004A0000E94560180E80E945601DF91CF91089585
:1004B000CF93DF9300D000D0CDB7DEB78A837C83A3
:1004C0006B838A818830E0F48A81882F90E00896D7
:1004D000880F880F880F0E94560119820EC08981EB
:1004E000882F90E02B813C81820F931FFC0180813B
:1004F0000E94910189818F5F89838981883078F397
:100500000F900F900F900F90DF91CF910895CF93A0
:10051000DF93CDB7DEB784E690E00E94420388E324
:100520000E94A20286E00E94A2028FE00E94A20224
:1005300081E00E94A2028AE090E00E944203DF91E3
:10054000CF910895CF93DF931F92CDB7DEB7898304
:100550008BE290E02BE230E0F90120812F7BFC015F
:10056000208388E290E02981FC0120838BE290E0E7
:100570002BE230E0F90120812068FC01208300009B
:100580008BE290E02BE230E0F90120812F77FC0133
:10059000208382E090E00E9442030F90DF91CF9190
:1005A0000895CF93DF931F92CDB7DEB789838BE297
:1005B00090E02BE230E0F90120812064FC012083EF
:1005C00088E290E02981FC0120838BE290E02BE21D
:1005D00030E0F90120812068FC01208300008BE2DB
:1005E00090E02BE230E0F90120812F77FC0120839D
:1005F00081E090E00E9442030F90DF91CF91089537
:10060000CF93DF9300D000D0CDB7DEB78A837C8351
:100610006B830E94FE008A81898311C0898191E0E9
:10062000980F99830E942C038B819C819C012F5FE2
:100630003F4F3C832B83FC0180810E94D1028B8140
:100640009C81FC018081882349F70F900F900F90C7
:100650000F90DF91CF910895CF93DF931F92CDB785
:10066000DEB789838981813128F4898181580E948C
:10067000A20204C0898181550E94A2020F90DF91DD
:10068000CF910895CF93DF9300D000D000D0CDB7A5
:10069000DEB79E838D831A82198214C01C821B824E
:1006A00006C000008B819C8101969C838B838B818B
:1006B0009C81873023E09207A4F389819A81019677
:1006C0009A83898329813A818D819E8128173907F0
:1006D0002CF326960FB6F894DEBF0FBECDBFDF9188
:1006E000CF9108950F931F93CF93DF93CDB7DEB7CC
:1006F00002E210E040E064E08FEF0E94B400F801F5
:100700008083000080E290E0FC018081809560E0C1
:100710000E94E400882311F081E3D3C080E290E0DE
:10072000FC018081809561E00E94E400882311F043
:1007300084E3C7C080E290E0FC018081809562E0A4
:100740000E94E400882311F087E3BBC080E290E0C0
:10075000FC018081809563E00E94E400882311F011
:100760008AE2AFC002E210E040E065E08FEF0E9455
:10077000B400F8018083000080E290E0FC018081F9
:10078000809560E00E94E400882311F082E399C024
:1007900080E290E0FC018081809561E00E94E400AD
:1007A000882311F085E38DC080E290E0FC01808118
:1007B000809562E00E94E400882311F088E381C004
:1007C00080E290E0FC018081809563E00E94E4007B
:1007D000882311F080E375C002E210E040E066E09B
:1007E0008FEF0E94B400F8018083000080E290E067
:1007F000FC018081809560E00E94E400882311F074
:1008000083E35FC080E290E0FC018081809561E03D
:100810000E94E400882311F086E353C080E290E058
:10082000FC018081809562E00E94E400882311F041
:1008300089E347C080E290E0FC018081809563E01D
:100840000E94E400882311F083E23BC002E210E042
:1008500040E067E08FEF0E94B400F8018083000061
:1008600080E290E0FC018081809560E00E94E400DD
:10087000882311F081E425C080E290E0FC018081B2
:10088000809561E00E94E400882311F082E419C0A1
:1008900080E290E0FC018081809562E00E94E400AB
:1008A000882311F083E40DC080E290E0FC01808198
:1008B000809563E00E94E400882311F084E401C085
:1008C00080E0DF91CF911F910F910895CF93DF9337
:1008D00000D01F92CDB7DEB78B831A82198205C074
:1008E00089819A8101969A8389838B81882F90E0F0
:1008F000880F991F9C01220F331F220F331F280FCF
:10090000391F89819A818217930754F30F900F90B2
:100910000F90DF91CF910895CF93DF9300D01F9276
:10092000CDB7DEB78B831A82198205C089819A817F
:1009300001969A8389838B81882F90E044E1489FB8
:100940009001499F300D112489819A818217930764
:100950006CF30F900F900F90DF91CF910895CF938C
:10096000DF93CDB7DEB784E290E024E230E0F90116
:1009700020812760FC012083DF91CF910895CF93E0
:10098000DF93CDB7DEB785E290E025E230E0F901F4
:1009900020812260FC01208385E290E025E230E0A6
:1009A000F90120812D7FFC012083DF91CF910895F3
:1009B000CF93DF93CDB7DEB785E290E025E230E05C
:1009C000F90120812460FC01208381E00E946604FB
:1009D00085E290E025E230E0F90120812B7FFC01E7
:1009E000208381E00E946604DF91CF910895CF9328
:1009F000DF9300D0CDB7DEB78A8319821EC08A810B
:100A0000882354F485E290E025E230E0F90120816A
:100A10002160FC01208309C085E290E025E230E0FE
:100A2000F90120812E7FFC0120830E94BF048A816E
:100A3000880F8A8389818F5F898389818830F8F262
:100A40000E94D8040F900F90DF91CF910895CF931B
:100A5000DF931F92CDB7DEB7198206C080E00E94F7
:100A60008C0489818F5F898389818E31B8F30F90DF
:100A7000DF91CF910895CF93DF9300D000D0CDB711
:100A8000DEB769837A838B839C8389819A81AB816A
:100A9000BC818093000190930101A0930201B09367
:100AA00003018091000190910101A0910201B09198
:100AB00003018093EF019093F001A093F101B093B3
:100AC000F2010F900F900F900F90DF91CF9108954A
:100AD000CF93DF93CDB7DEB781E890E02BE0FC0148
:100AE000208388E890E02DE730E0FC01318320830B
:100AF0008FE690E022E0FC01208384E890E0FC0196
:100B0000118210828091000190910101A091020157
:100B1000B09103018093EF019093F001A093F10154
:100B2000B093F2018FE590E02FE530E0F9012081EC
:100B30002068FC012083DF91CF910895CF93DF934C
:100B4000CDB7DEB781E890E0FC011082DF91CF9154
:100B50000895CF93DF93CDB7DEB781E08093EE01A8
:100B6000DF91CF9108951F920F9200905F000F9236
:100B7000112400905B000F922F933F934F935F934C
:100B80006F937F938F939F93AF93BF93EF93FF9355
:100B9000CF93DF93CDB7DEB78091EF019091F00155
:100BA000A091F101B091F2010197A109B1098093DF
:100BB000EF019093F001A093F101B093F2018091C5
:100BC000EF019091F001A091F101B091F201009735
:100BD000A105B10591F40E94A905809100019091B1
:100BE0000101A0910201B09103018093EF01909364
:100BF000F001A093F101B093F201DF91CF91FF9149
:100C0000EF91BF91AF919F918F917F916F915F9184
:100C10004F913F912F910F9000925B000F900092A7
:100C20005F000F901F901895CF93DF9300D000D0F6
:100C3000CDB7DEB789836A834B832C838981882F64
:100C400090E00197982F9295907F8A81890F0E945A
:100C50002C038C81882321F48B810E94D10203C054
:100C60008B810E9491010F900F900F900F90DF9158
:100C7000CF910895CF93DF93CDB7DEB7A8970FB686
:100C8000F894DEBF0FBECDBF28E0EDE7F1E0CE0166
:100C90000196DC0101900D922A95E1F788E0E5E8E4
:100CA000F1E0DE01199601900D928A95E1F788E056
:100CB000EDE8F1E0DE01519601900D928A95E1F7A1
:100CC00088E0E5E9F1E0DE01599601900D928A9500
:100CD000E1F788E0EDE9F1E0DE01919601900D92F7
:100CE0008A95E1F7CE010196BC0180E00E9458028E
:100CF000CE010996BC0181E00E945802CE014196C6
:100D0000BC0182E00E945802CE014996BC0183E0FA
:100D10000E945802CE018196BC0184E00E945802D4
:100D2000A8960FB6F894DEBF0FBECDBFDF91CF916E
:100D30000895CF93DF93CDB7DEB70E94FE00DF9119
:100D4000CF910895CF93DF93CDB7DEB7109277019F
:100D500027C080917701882F90E0815F9E4FFC0132
:100D60008081813051F480917701882F90E0815FFC
:100D70009E4F20E1FC0120830EC080917701882FD7
:100D800090E09C01215F3E4FF90120812150815F5D
:100D90009E4FFC012083809177018F5F80937701C4
:100DA000809177018430A8F2DF91CF910895CF939D
:100DB000DF93CDB7DEB71092770131C08091770114
:100DC000882F90E08D5E9E4FFC018081882311F179
:100DD00080917701882F90E08D5E9E4FFC0180818D
:100DE000813051F480917701882F90E08D5E9E4F85
:100DF00020E1FC0120830EC080917701882F90E0D4
:100E00009C012D5E3E4FF901208121508D5E9E4F49
:100E1000FC012083809177018F5F8093770190910F
:100E2000770180910E01981748F2DF91CF910895D4
:100E3000CF93DF93CDB7DEB78091F4018093770134
:100E40002FC080917701882F90E08D5E9E4FFC012E
:100E50008081882391F480917701282F30E0809160
:100E6000F401882F90E0019628173907A1F48091AA
:100E7000F4018F5F8093F4010EC080917701882F79
:100E800090E08D5E9E4FFC01808121E044E0682F60
:100E900081E00E941406809177018F5F8093770133
:100EA0009091770180910E01981758F2DF91CF91C0
:100EB0000895CF93DF93CDB7DEB71092770113C0BB
:100EC00080917701882F90E0815F9E4FFC018081A7
:100ED00020E04AE2682F81E00E94140680917701A9
:100EE0008F5F8093770180917701823048F382E0B1
:100EF0008093770113C080917701882F90E0815F04
:100F00009E4FFC01808120E04AE2682F82E00E942F
:100F10001406809177018F5F80937701809177012C
:100F2000843048F3DF91CF910895EF92FF920F93B1
:100F30001F93CF93DF93CDB7DEB7C554D1090FB65A
:100F4000F894DEBF0FBECDBF9E012C5B3F4FF90171
:100F500091838083CE018C5B9F4FFC0180819181C6
:100F60009C838B83CE018C5B9F4FFC0180819181A0
:100F70008230910559F18330910534F4009761F086
:100F80008130910591F08AC08330910541F1843020
:100F9000910509F472C082C0CE018C5B9F4F21E0A5
:100FA00030E0FC013183208380C08091F501909175
:100FB000F6018133910549F4CE018C5B9F4F22E00D
:100FC00030E0FC013183208370C06FC0CE018C5BA8
:100FD0009F4F23E030E0FC013183208366C0809185
:100FE000F5019091F6018A32910541F4CE018C5BB6
:100FF0009F4F21E030E0FC01318320838091F70195
:10100000882351F0CE018C5B9F4F24E030E0FC013F
:10101000318320831092F7011092770129C08091CB
:101020007801282F30E080917701882F90E0815F50
:101030009E4FFC018081482F50E0809177018230E3
:1010400018F080E190E002C080E090E0840F951FEE
:101050002817390741F4CE018C5B9F4F24E030E024
:10106000FC0131832083809177018F5F809377012A
:1010700080917701843098F218C08091F5019091A9
:10108000F6018133910549F4CE018C5B9F4F21E03D
:1010900030E0FC013183208308C007C0CE018C5BA7
:1010A0009F4FFC01118210820000CE018C5B9F4F8C
:1010B000FC01808191818230910509F476C08330F2
:1010C00091053CF4009709F424C18130910551F059
:1010D00023C18330910509F41EC18430910509F4C0
:1010E0007BC01AC1CE018C5B9F4F2B813C81FC01E0
:1010F000808191812817390709F456C088E08093D0
:101100000E011092F40181E080930F018AE0809338
:10111000100186E0809311018EE0809312011A8203
:10112000198229C089819A818430910514F013E1D4
:1011300001C013E00E94BB0EAC0129813A81429F9D
:10114000C001439F900D529F900D112481709078A3
:10115000992324F401978E6F9F6F0196212F280FFA
:1011600089819A818D5E9E4FFC01208389819A81BD
:1011700001969A83898380910E01282F30E089811E
:101180009A818217930774F280E2E5EAF1E0DE01CA
:10119000949601900D928A95E1F7CE018496BC0158
:1011A00081E00E940003B8C0B7C00E94990681E1A7
:1011B000809378010E9459078091780121E040E0F6
:1011C000682F81E00E9414060E9418071092F30114
:1011D00080E00E942C03A0C0CE018C5B9F4F2B812E
:1011E0003C81FC01808191812817390709F494C062
:1011F0008BE1E6ECF1E0DE01159601900D928A9507
:10120000E1F718A219A21AA21BA2CE010596BC01F1
:1012100081E00E9400038EE00E942C039091F30174
:101220008DEC989F812D1124869586958695805DFD
:101230000E94D1028FE00E942C039091F3018DEC6B
:10124000989F812D1124869586958695880F282F45
:10125000220F220F820FF92FF81B8F2F805D0E9423
:10126000D1028091F301082F10E081E090E00E940C
:10127000CA0E882F90E0880F991F9C01220F331F00
:10128000220F331F7C01E20EF31E82E090E00E94E9
:10129000CA0E882F90E08E0D9F1D8017910724F5B0
:1012A0009091F3018DEC989F812D11248695869560
:1012B0008695682F81E090E00E94D20E9091F30114
:1012C0008DEC989F812D1124869586958695880FA3
:1012D000282F220F220F820F292F281B822F682FE1
:1012E00082E090E00E94D20E8CE10E942C0381E00B
:1012F00090E00E94CA0E805D0E94D1028DE10E94A2
:101300002C0382E090E00E94CA0E805D0E94D10210
:1013100003C0000001C00000CE018C5B9F4FFC01A8
:1013200080819181CB5BDF4F0FB6F894DEBF0FBE9B
:10133000CDBFDF91CF911F910F91FF90EF90089556
:10134000CF93DF9300D000D0CDB7DEB79A838983E7
:1013500089819A818130910551F08230910589F01F
:101360000097E9F481E090E09A8389831BC0809123
:10137000FB01833029F482E090E09A83898312C0D4
:1013800011C08091FB01813021F08091FB018430FC
:1013900029F481E090E09A83898304C003C01A8213
:1013A0001982000089819A818130910509F4ADC0CC
:1013B0008230910521F0009709F4A9C0A9C080915D
:1013C0007801883020F080917801813150F080914F
:1013D0007801883108F464C080917801813208F086
:1013E0005FC00E9499068091780120E040E2682F5A
:1013F00081E00E94140680917801815080937801E9
:101400008091780121E040E0682F81E00E9414067D
:101410000E94D7060E94A2060E94BB0E23E030E085
:10142000B9010E94260E8093F8018091F80188236B
:10143000B1F480910F01803191F0809110018031E1
:1014400071F080910E01882F90E08D5E9E4F20E11B
:10145000FC01208380910E018F5F80930E018091AB
:10146000F8018130B1F480911101803191F08091C7
:101470001201803171F080910E01882F90E08D5E15
:101480009E4F20E2FC01208380910E018F5F8093AC
:101490000E010E9459070E94180780E00E942C0349
:1014A0008091F4018093770129C080917701882F82
:1014B00090E08D5E9E4FFC0190818091780198179D
:1014C000C1F480917701882F90E08D5E9E4FFC01E2
:1014D00010828091780121E041E0682F81E00E9434
:1014E000140680E00E942C038091F3018F5F8093AB
:1014F000F301809177018F5F80937701909177015D
:1015000080910E01981788F203C0000001C000000E
:1015100089819A810F900F900F900F90DF91CF915A
:101520000895CF93DF9300D0CDB7DEB79A83898338
:101530000E947203882F90E09093F6018093F5014A
:1015400089819A818130910591F082309105A1F0D5
:10155000009701F58091F5019091F60121E0009747
:1015600009F420E0822F90E09A83898316C082E0FC
:1015700090E09A83898311C08091F5019091F601E2
:10158000009719F480E090E002C082E090E09A8336
:10159000898303C01A821982000089819A8181306F
:1015A000910541F08230910509F4A1C0009709F43A
:1015B000A0C0A0C08091F5019091F60185339105FE
:1015C000F1F480917801813108F490C08091780124
:1015D00020E040E2682F81E00E94140680917801AB
:1015E0008051809378018091780121E040E0682F5C
:1015F00081E00E94140680E00E942C037BC0809151
:10160000F5019091F60188339105F1F4809178010C
:10161000813108F06BC08091780120E040E2682FB2
:1016200081E00E94140680917801805F80937801A8
:101630008091780121E040E0682F81E00E9414064B
:1016400080E00E942C0356C08091F5019091F60134
:101650008933910519F580917801803109F446C0EC
:10166000809178018F3109F441C08091780120E0A8
:1016700040E2682F81E00E941406809178018F5F1C
:10168000809378018091780121E040E0682F81E02B
:101690000E94140680E00E942C032CC08091F5016A
:1016A0009091F6018733910509F580917801813099
:1016B000E9F0809178018131C9F08091780120E0D2
:1016C00040E2682F81E00E941406809178018150E9
:1016D000809378018091780121E040E0682F81E0DB
:1016E0000E94140680E00E942C0304C003C0000086
:1016F00001C0000089819A810F900F90DF91CF91F6
:101700000895CF93DF9300D0CDB7DEB79A83898356
:1017100089819A8181309105D9F0823091051CF43C
:10172000009741F03AC082309105B9F083309105BD
:1017300089F133C08091040190910501FC01808101
:10174000833029F481E090E09A83898329C028C0FE
:1017500082E090E09A83898323C080910401909174
:101760000501FC018081833049F48091FA018536BE
:1017700028F083E090E09A8389830BC08091040174
:1017800090910501FC018081833019F01A82198241
:1017900007C006C01A82198203C01A82198200008B
:1017A00089819A818130910551F082309105ECF068
:1017B0008230910539F08330910551F017C01092B5
:1017C000FA0114C08091FA018F5F8093FA010EC074
:1017D0008091040190910501FC018081833021F406
:1017E00081E08093F70102C001C0000089819A81E5
:1017F0000F900F90DF91CF910895CF93DF9300D09A
:10180000CDB7DEB79A83898389819A81813091052A
:1018100079F08230910589F0009791F480917801F8
:10182000813128F481E090E09A8389830BC00AC05B
:1018300082E090E09A83898305C01A82198202C0EF
:101840001A82198289819A8181309105E1F0823072
:101850009105D9F48091780120E040E2682F81E081
:101860000E94140680917801805F809378018091B6
:10187000780121E040E0682F81E00E94140680E0BA
:101880000E942C0303C0000001C0000089819A81DE
:101890000F900F90DF91CF9108950F931F93CF93E7
:1018A000DF93CDB7DEB760970FB6F894DEBF0FBEFB
:1018B000CDBF87E290E02FEFFC01208388E290E02B
:1018C000FC01108284E290E02FEFFC01208385E28E
:1018D00090E0FC0110828AE290E02FEFFC0120836F
:1018E0008BE290E0FC01108281E290E020EFFC01AD
:1018F000208382E290E02FE0FC0120830E943A06E0
:101900000E94870260E081E090E00E94D20E60E0D9
:1019100082E090E00E94D20E85E090E098878F836D
:101920001092FB0185E090E0A0E0B0E08093FC0124
:101930009093FD01A093FE01B093FF018091FC0103
:101940009091FD01A091FE01B091FF0180930002F2
:1019500090930102A0930202B093030285E997E0FD
:1019600090930502809304021092060285E090E0B5
:10197000A0E0B0E08093070290930802A0930902D0
:10198000B0930A028091070290910802A091090287
:10199000B0910A0280930B0290930C02A0930D0267
:1019A000B0930E0280EA99E09093100280930F02A8
:1019B0001092110285E090E0A0E0B0E08093120266
:1019C00090931302A0931402B09315028091120217
:1019D00090911302A0911402B09115028093160207
:1019E00090931702A0931802B093190281E99AE02C
:1019F00090931B0280931A0210921C0282E390E0E3
:101A0000A0E0B0E080931D0290931E02A0931F02FD
:101A1000B093200280911D0290911E02A0911F029E
:101A2000B09120028093210290932202A09323027E
:101A3000B093240281E89BE09093260280932502D4
:101A40001092270288E290E0A0E0B0E080932802A4
:101A500090932902A0932A02B0932B02809128022E
:101A600090912902A0912A02B0912B0280932C021E
:101A700090932D02A0932E02B0932F028DEF9BE046
:101A8000909331028093300280910401909105017E
:101A9000FC0181819281A381B48189839A83AB8384
:101AA000BC8381E090E09E838D8321C08D819E81E7
:101AB000880F991F8C5F9E4FFC0180819181FC01F2
:101AC00081819281A381B48129813A814B815C819A
:101AD000BC01CD010E946700DC01CB0189839A83A0
:101AE000AB83BC838D819E8101969E838D832D81E6
:101AF0003E818F81988528173907C0F289819A81A4
:101B0000AB81BC81BC01CD010E943B050E946805F0
:101B100088E0E5EEF1E0DE01199601900D928A95DC
:101B2000E1F78B850E94F7041E821D827FC08D81A4
:101B30009E81880F991F8C5F9E4FFC01808191814F
:101B4000FC0125813681478150858D819E81880FDA
:101B5000991F8C5F9E4FFC0180819181FC018181E6
:101B60009281A381B481281739074A075B07A9F539
:101B70008D819E81880F991F8C5F9E4FFC01008193
:101B800011818D819E81880F991F8C5F9E4FFC0172
:101B900080819181FC01218532858D819E81880F14
:101BA000991F8C5F9E4FFC0180819181FC01808197
:101BB000992787FD9095F9010995F80180838D811A
:101BC0009E81880F991F8C5F9E4FFC0180819181BF
:101BD000FC0115821682178210868D819E81880FE6
:101BE000991F8C5F9E4FFC01608171818D819E8168
:101BF000880F991F8C5F9E4FFC0180819181FC01B1
:101C0000258136814781508589819A81AB81BC814C
:101C1000820F931FA41FB51FFB0185839683A783A3
:101C2000B0878D819E8101969E838D832D813E811B
:101C30008F8198852817390708F479CF00008091A3
:101C4000EE018823E1F31092EE016ECF97FB072E91
:101C500016F4009407D077FD09D00E945C0E07FCB3
:101C600005D03EF4909581959F4F089570956195AC
:101C70007F4F0895A1E21A2EAA1BBB1BFD010DC0C8
:101C8000AA1FBB1FEE1FFF1FA217B307E407F5072C
:101C900020F0A21BB30BE40BF50B661F771F881F08
:101CA000991F1A9469F760957095809590959B019E
:101CB000AC01BD01CF010895AA1BBB1B51E107C0B8
:101CC000AA1FBB1FA617B70710F0A61BB70B881FCC
:101CD000991F5A95A9F780959095BC01CD0108955B
:101CE0008F929F92AF92BF92CF92DF92EF92FF922C
:101CF000CF93DF93EC01688179818A819B816115A3
:101D000071058105910521F464E279ED8BE597E099
:101D10002DE133EF41E050E00E94F30E49015A01FA
:101D20009B01AC01A7EAB1E40E94E00E6B017C01CB
:101D3000ACEEB4EFA50194010E94EE0EDC01CB01E4
:101D40008C0D9D1DAE1DBF1DB7FF03C00197A109DE
:101D5000B04888839983AA83BB839F77DF91CF9113
:101D6000FF90EF90DF90CF90BF90AF909F908F90BB
:101D700008950C94700E89E791E00C94700EA0E029
:101D8000B0E08093790190937A01A0937B01B093A6
:101D90007C010895F999FECF92BD81BDF89A9927EB
:101DA00080B50895262FF999FECF1FBA92BD81BD47
:101DB00020BD0FB6F894FA9AF99A0FBE01960895CD
:101DC0000E94120FA59F900DB49F900DA49F800DAF
:101DD000911D11240895B7FF0C94E00E0E94E00EAF
:101DE000821B930B0895052E97FB1EF400940E940E
:101DF0000A0F57FD07D00E943A0E07FC03D04EF49D
:101E00000C940A0F50954095309521953F4F4F4FB8
:101E10005F4F089590958095709561957F4F8F4F96
:101E20009F4F0895A29FB001B39FC001A39F700D63
:101E3000811D1124911DB29F700D811D1124911DD2
:061E40000895F894FFCFA5
:101E460001000000FB01060211021C022702080124
:101E56000A060E030405061718191A0000000000EA
:101E6600000000000000000000000000000000006C
:101E7600000000000000000000000000000000005C
:101E8600000000000000000000000000000000004C
:101E9600000000000000000000000000000000003C
:101EA600000000000000000000000000000000002C
:101EB6000000000000000001110100000000000FFA
:101EC60015161E1F1F00000F15171F1F1F000000ED
:101ED60000000705071F1F1F1F1F1F1F1F000004ED
:101EE6000A110A04005072657373203120746F2042
:101EF600737461727420202020202020202020204E
:101F0600202020202000596F75722053636F726560
:101F16003A202020202020486967686573743A209B
:0E1F2600000000000081C3E7FF7E3C180000B1
:00000001FF
