:100000000C9446000C9465000C9465000C946500FB
:100010000C9465000C9465000C9465000C946500CC
:100020000C9465000C9465000C9465000C946500BC
:100030000C9465000C94DE040C9465000C9465002F
:100040000C9465000C9465000C9465000C9465009C
:100050000C9465000C9465000C9465000C9465008C
:100060000C9465000C9465000C9465000C9465007C
:100070000C9465000C9465000C9465000C9465006C
:100080000C9465000C9465000C94650011241FBE4F
:10009000CFEFD0E4DEBFCDBF11E0A0E0B1E0E0E300
:1000A000FBE100E00BBF02C007900D92A43EB10738
:1000B000D9F712E0A4EEB1E001C01D92AC31B10756
:1000C000E1F70E94280B0C94960D0C940000CF933E
:1000D000DF93CDB7DEB760970FB6F894DEBF0FBEE3
:1000E000CDBF6D837E838F83988729873A874B871F
:1000F0005C878D819E81AF81B88529853A854B8546
:100100005C85BC01CD010E94AF0CDC01CB01898371
:100110009A83AB83BC8389819A81AB81BC81009730
:10012000A105B10529F489859A85AB85BC8511C0E7
:1001300089859A85AB85BC858D839E83AF83B8877F
:1001400089819A81AB81BC8189879A87AB87BC877B
:10015000D0CFBC01CD0160960FB6F894DEBF0FBEC4
:10016000CDBFDF91CF910895CF93DF9300D01F9241
:10017000CDB7DEB789836A834B838B81882379F07F
:100180008A81282F30E081E090E0022E02C0880FA3
:10019000991F0A94E2F7982F8981892B0FC08A81D1
:1001A000282F30E081E090E0022E02C0880F991FD6
:1001B0000A94E2F7982F9095898189230F900F90E8
:1001C0000F90DF91CF910895CF93DF9300D0CDB7FB
:1001D000DEB789836A838A81282F30E081E090E04E
:1001E000022E02C0880F991F0A94E2F7982F898186
:1001F00089230F900F90DF91CF910895CF93DF93D4
:10020000CDB7DEB781E00E94A202DF91CF910895C1
:10021000CF93DF9300D000D0CDB7DEB79C838B8324
:100220001A82198205C089819A8101969A838983ED
:100230008B819C81880F991F9C01220F331F220FF5
:10024000331F280F391F89819A81821793075CF326
:100250000F900F900F900F90DF91CF910895CF9353
:10026000DF9300D000D0CDB7DEB79C838B831A829A
:10027000198205C089819A8101969A8389834B816D
:100280005C8188EE93E0489F9001499F300D589F14
:10029000300D112489819A81821793075CF30F90A6
:1002A0000F900F900F90DF91CF910895CF93DF9330
:1002B0001F92CDB7DEB7898388E290E02981FC01E7
:1002C00020838BE290E02BE230E0F90120812F7B4C
:1002D000FC0120838BE290E02BE230E0F9012081E9
:1002E0002F7DFC0120838BE290E02BE230E0F901CE
:1002F00020812068FC01208381E090E00E940801B9
:100300008BE290E02BE230E0F90120812F77FC01B5
:10031000208382E090E00E942F010F90DF91CF9127
:100320000895CF93DF931F92CDB7DEB7898388E21C
:1003300090E02981FC0120838BE290E02BE230E009
:10034000F90120812064FC0120838BE290E02BE204
:1003500030E0F90120812F7DFC0120838BE290E0C9
:100360002BE230E0F90120812068FC01208381E04C
:1003700090E00E9408018BE290E02BE230E0F9016E
:1003800020812F77FC01208382E090E00E942F01E2
:100390000F90DF91CF910895CF93DF93CDB7DEB764
:1003A0008AE290E02FEFFC01208387E290E02FEFBC
:1003B000FC01208384E190E00E942F0188E30E94E9
:1003C00056018CE00E94560186E00E94560181E0B1
:1003D0000E94560182E090E00E942F0180E80E9476
:1003E0005601DF91CF910895CF93DF9300D000D0D5
:1003F000CDB7DEB79C838B831A8219820FC08981A7
:100400009A812B813C81820F931FFC0180810E9485
:10041000910189819A8101969A83898389819A8140
:100420002B813C81820F931FFC018081882339F747
:100430000F900F900F900F90DF91CF910895CF9371
:10044000DF9300D000D0CDB7DEB789836A835C83A9
:100450004B838981882349F48A81803134F48A81ED
:100460008F7080680E9456010BC08981813041F4F1
:100470008A8180312CF48A818F70806C0E945601B1
:100480008B819C810E94F4010F900F900F900F9030
:10049000DF91CF910895CF93DF93CDB7DEB781E0A1
:1004A0000E94560180E80E945601DF91CF91089585
:1004B000CF93DF9300D000D0CDB7DEB78A837C83A3
:1004C0006B838A818830E0F48A81882F90E00896D7
:1004D000880F880F880F0E94560119820EC08981EB
:1004E000882F90E02B813C81820F931FFC0180813B
:1004F0000E94910189818F5F89838981883078F397
:100500000F900F900F900F90DF91CF910895CF93A0
:10051000DF93CDB7DEB784E690E00E94420388E324
:100520000E94A20286E00E94A2028FE00E94A20224
:1005300081E00E94A2028AE090E00E944203DF91E3
:10054000CF910895CF93DF931F92CDB7DEB7898304
:100550008BE290E02BE230E0F90120812F7BFC015F
:10056000208388E290E02981FC0120838BE290E0E7
:100570002BE230E0F90120812068FC01208300009B
:100580008BE290E02BE230E0F90120812F77FC0133
:10059000208382E090E00E9442030F90DF91CF9190
:1005A0000895CF93DF931F92CDB7DEB789838BE297
:1005B00090E02BE230E0F90120812064FC012083EF
:1005C00088E290E02981FC0120838BE290E02BE21D
:1005D00030E0F90120812068FC01208300008BE2DB
:1005E00090E02BE230E0F90120812F77FC0120839D
:1005F00081E090E00E9442030F90DF91CF91089537
:10060000CF93DF9300D000D0CDB7DEB78A837C8351
:100610006B830E94FE008A81898311C0898191E0E9
:10062000980F99830E942C038B819C819C012F5FE2
:100630003F4F3C832B83FC0180810E94D1028B8140
:100640009C81FC018081882349F70F900F900F90C7
:100650000F90DF91CF910895CF93DF931F92CDB785
:10066000DEB789838981813128F4898181580E948C
:10067000A20204C0898181550E94A2020F90DF91DD
:10068000CF910895CF93DF9300D000D000D0CDB7A5
:10069000DEB79E838D831A82198214C01C821B824E
:1006A00006C000008B819C8101969C838B838B818B
:1006B0009C81873023E09207A4F389819A81019677
:1006C0009A83898329813A818D819E8128173907F0
:1006D0002CF326960FB6F894DEBF0FBECDBFDF9188
:1006E000CF9108950F931F93CF93DF93CDB7DEB7CC
:1006F00002E210E040E064E08FEF0E94B400F801F5
:100700008083000080E290E0FC018081809560E0C1
:100710000E94E400882311F081E3D3C080E290E0DE
:10072000FC018081809561E00E94E400882311F043
:1007300084E3C7C080E290E0FC018081809562E0A4
:100740000E94E400882311F087E3BBC080E290E0C0
:10075000FC018081809563E00E94E400882311F011
:100760008AE2AFC002E210E040E065E08FEF0E9455
:10077000B400F8018083000080E290E0FC018081F9
:10078000809560E00E94E400882311F082E399C024
:1007900080E290E0FC018081809561E00E94E400AD
:1007A000882311F085E38DC080E290E0FC01808118
:1007B000809562E00E94E400882311F088E381C004
:1007C00080E290E0FC018081809563E00E94E4007B
:1007D000882311F080E375C002E210E040E066E09B
:1007E0008FEF0E94B400F8018083000080E290E067
:1007F000FC018081809560E00E94E400882311F074
:1008000083E35FC080E290E0FC018081809561E03D
:100810000E94E400882311F086E353C080E290E058
:10082000FC018081809562E00E94E400882311F041
:1008300089E347C080E290E0FC018081809563E01D
:100840000E94E400882311F083E23BC002E210E042
:1008500040E067E08FEF0E94B400F8018083000061
:1008600080E290E0FC018081809560E00E94E400DD
:10087000882311F081E425C080E290E0FC018081B2
:10088000809561E00E94E400882311F082E419C0A1
:1008900080E290E0FC018081809562E00E94E400AB
:1008A000882311F083E40DC080E290E0FC01808198
:1008B000809563E00E94E400882311F084E401C085
:1008C00080E0DF91CF911F910F910895CF93DF9337
:1008D00000D000D0CDB7DEB769837A838B839C8349
:1008E00089819A81AB81BC81809300019093010141
:1008F000A0930201B0930301809100019091010146
:10090000A0910201B09103018093E5019093E6016B
:10091000A093E701B093E8010F900F900F900F9014
:10092000DF91CF910895CF93DF93CDB7DEB781E804
:1009300090E02BE0FC01208388E890E02DE730E098
:10094000FC01318320838FE690E022E0FC012083CC
:1009500084E890E0FC011182108280910001909166
:100960000101A0910201B09103018093E5019093F0
:10097000E601A093E701B093E8018FE590E02FE551
:1009800030E0F90120812068FC012083DF91CF91C4
:100990000895CF93DF93CDB7DEB781E890E0FC01F7
:1009A0001082DF91CF910895CF93DF93CDB7DEB75B
:1009B00081E08093E401DF91CF9108951F920F921F
:1009C00000905F000F92112400905B000F922F9314
:1009D0003F934F935F936F937F938F939F93AF93C7
:1009E000BF93EF93FF93CF93DF93CDB7DEB78091A3
:1009F000E5019091E601A091E701B091E80101972E
:100A0000A109B1098093E5019093E601A093E70164
:100A1000B093E8018091E5019091E601A091E70192
:100A2000B091E8010097A105B10591F40E94D404AA
:100A30008091000190910101A0910201B091030108
:100A40008093E5019093E601A093E701B093E8015C
:100A5000DF91CF91FF91EF91BF91AF919F918F91D6
:100A60007F916F915F914F913F912F910F900092E5
:100A70005B000F9000925F000F901F901895CF932E
:100A8000DF9300D000D0CDB7DEB789836A834B8374
:100A90002C838981882F90E00197982F9295907FE1
:100AA0008A81890F0E942C038C81882321F48B81F9
:100AB0000E94D10203C08B810E9491010F900F9080
:100AC0000F900F90DF91CF910895CF93DF93CDB723
:100AD000DEB7A8970FB6F894DEBF0FBECDBF28E0F3
:100AE000EBE7F1E0CE010196DC0101900D922A9531
:100AF000E1F788E0E3E8F1E0DE01199601900D925C
:100B00008A95E1F788E0EBE8F1E0DE01519601908B
:100B10000D928A95E1F788E0E3E9F1E0DE0159966C
:100B200001900D928A95E1F788E0EBE9F1E0DE01B2
:100B3000919601900D928A95E1F7CE010196BC0144
:100B400080E00E945802CE010996BC0181E00E941B
:100B50005802CE014196BC0182E00E945802CE01AB
:100B60004996BC0183E00E945802CE018196BC01E7
:100B700084E00E945802A8960FB6F894DEBF0FBE1C
:100B8000CDBFDF91CF910895CF93DF93CDB7DEB77F
:100B90000E94FE00DF91CF910895CF93DF93CDB7F0
:100BA000DEB71092750127C080917501882F90E003
:100BB000835F9E4FFC018081813051F480917501EB
:100BC000882F90E0835F9E4F20E1FC0120830EC0C0
:100BD00080917501882F90E09C01235F3E4FF901C1
:100BE00020812150835F9E4FFC01208380917501FD
:100BF0008F5F80937501809175018430A8F2DF9139
:100C0000CF910895CF93DF93CDB7DEB710927501E2
:100C100031C080917501882F90E08F5E9E4FFC015E
:100C20008081882311F180917501882F90E08F5E7B
:100C30009E4FFC018081813051F480917501882F95
:100C400090E08F5E9E4F20E1FC0120830EC08091DA
:100C50007501882F90E09C012F5E3E4FF9012081A5
:100C600021508F5E9E4FFC012083809175018F5F24
:100C7000809375019091750180910C01981748F24D
:100C8000DF91CF910895CF93DF93CDB7DEB78091F9
:100C9000EA01809375012FC080917501882F90E043
:100CA0008F5E9E4FFC018081882391F480917501B5
:100CB000282F30E08091EA01882F90E001962817D4
:100CC0003907A1F48091EA018F5F8093EA010EC099
:100CD00080917501882F90E08F5E9E4FFC0180818E
:100CE00021E044E0682F81E00E943F05809175017A
:100CF0008F5F809375019091750180910C01981719
:100D000058F2DF91CF910895CF93DF93CDB7DEB73F
:100D10001092750113C080917501882F90E0835F58
:100D20009E4FFC01808120E04AE2682F81E00E9412
:100D30003F05809175018F5F8093750180917501EA
:100D4000823048F382E08093750113C08091750171
:100D5000882F90E0835F9E4FFC01808120E04AE273
:100D6000682F82E00E943F05809175018F5F80931C
:100D7000750180917501843048F3DF91CF9108951A
:100D8000EF92FF920F931F93CF93DF93CDB7DEB710
:100D9000C554D1090FB6F894DEBF0FBECDBF9E017A
:100DA0002C5B3F4FF90191838083CE018C5B9F4F79
:100DB000FC01808191819C838B83CE018C5B9F4F52
:100DC000FC01808191818230910559F18330910538
:100DD00034F4009761F08130910591F08AC083303E
:100DE000910541F18430910509F472C082C0CE01B1
:100DF0008C5B9F4F21E030E0FC013183208380C079
:100E00008091EB019091EC018133910549F4CE0181
:100E10008C5B9F4F22E030E0FC013183208370C067
:100E20006FC0CE018C5B9F4F23E030E0FC0131832B
:100E3000208366C08091EB019091EC018A3291058C
:100E400041F4CE018C5B9F4F21E030E0FC01318307
:100E500020838091ED01882351F0CE018C5B9F4F60
:100E600024E030E0FC01318320831092ED011092E8
:100E7000750129C080917601282F30E0809175019D
:100E8000882F90E0835F9E4FFC018081482F50E0C7
:100E900080917501823018F080E190E002C080E01E
:100EA00090E0840F951F2817390741F4CE018C5B21
:100EB0009F4F24E030E0FC01318320838091750155
:100EC0008F5F8093750180917501843098F218C00E
:100ED0008091EB019091EC018133910549F4CE01B1
:100EE0008C5B9F4F21E030E0FC013183208308C000
:100EF00007C0CE018C5B9F4FFC0111821082000065
:100F0000CE018C5B9F4FFC018081918182309105E5
:100F100009F476C0833091053CF4009709F424C1AC
:100F20008130910551F023C18330910509F41EC130
:100F30008430910509F47BC01AC1CE018C5B9F4FB0
:100F40002B813C81FC01808191812817390709F4AC
:100F500056C088E080930C011092EA0181E08093F2
:100F60000D018AE080930E0186E080930F018EE0F0
:100F7000809310011A82198229C089819A81843054
:100F8000910514F013E101C013E00E94300DAC0193
:100F900029813A81429FC001439F900D529F900D3D
:100FA000112481709078992324F401978E6F9F6F9C
:100FB0000196212F280F89819A818F5E9E4FFC0117
:100FC000208389819A8101969A83898380910C017B
:100FD000282F30E089819A818217930774F280E28A
:100FE000E3EAF1E0DE01949601900D928A95E1F733
:100FF000CE018496BC0181E00E940003B8C0B7C056
:101000000E94C40581E1809376010E94840680914C
:10101000760121E040E0682F81E00E943F050E94B8
:1010200043061092E90180E00E942C03A0C0CE018B
:101030008C5B9F4F2B813C81FC0180819181281723
:10104000390709F494C08BE1E4ECF1E0DE01159678
:1010500001900D928A95E1F718A219A21AA21BA27B
:10106000CE010596BC0181E00E9400038EE00E9443
:101070002C039091E9018DEC989F812D1124869588
:1010800086958695805D0E94D1028FE00E942C0398
:101090009091E9018DEC989F812D1124869586957C
:1010A0008695880F282F220F220F820FF92FF81B09
:1010B0008F2F805D0E94D1028091E901082F10E0FE
:1010C00081E090E00E943F0D882F90E0880F991FEB
:1010D0009C01220F331F220F331F7C01E20EF31EEF
:1010E00082E090E00E943F0D882F90E08E0D9F1DC2
:1010F0008017910724F59091E9018DEC989F812D3F
:101100001124869586958695682F81E090E00E944F
:10111000470D9091E9018DEC989F812D11248695C2
:1011200086958695880F282F220F220F820F292F50
:10113000281B822F682F82E090E00E94470D8CE1EF
:101140000E942C0381E090E00E943F0D805D0E9490
:10115000D1028DE10E942C0382E090E00E943F0DBD
:10116000805D0E94D10203C0000001C00000CE01DA
:101170008C5B9F4FFC0180819181CB5BDF4F0FB671
:10118000F894DEBF0FBECDBFDF91CF911F910F91BD
:10119000FF90EF900895CF93DF9300D000D0CDB7AC
:1011A000DEB79A83898389819A818130910551F0D4
:1011B0008230910589F00097E9F481E090E09A830C
:1011C00089831BC08091F001833029F482E090E094
:1011D0009A83898312C011C08091F001813021F07F
:1011E0008091F001843029F481E090E09A83898332
:1011F00004C003C01A821982000089819A8181305B
:10120000910509F4ADC08230910521F0009709F4F1
:10121000A9C0A9C080917601883020F08091760124
:10122000813150F080917601883108F464C080915A
:101230007601813208F05FC00E94C405809176017A
:1012400020E040E2682F81E00E943F058091760116
:101250008150809376018091760121E040E0682FF3
:1012600081E00E943F050E9402060E94CD050E9477
:10127000300D23E030E0B9010E949B0C8093EE0119
:101280008091EE018823B1F480910D01803191F0BD
:1012900080910E01803171F080910C01882F90E0D7
:1012A0008F5E9E4F20E1FC01208380910C018F5FB7
:1012B00080930C018091EE018130B1F480910F0197
:1012C000803191F080911001803171F080910C019A
:1012D000882F90E08F5E9E4F20E2FC01208380915A
:1012E0000C018F5F80930C010E9484060E944306CC
:1012F00080E00E942C038091EA018093750129C04F
:1013000080917501882F90E08F5E9E4FFC01908147
:10131000809176019817C1F480917501882F90E033
:101320008F5E9E4FFC0110828091760121E041E0AA
:10133000682F81E00E943F0580E00E942C0380918D
:10134000E9018F5F8093E901809175018F5F809340
:1013500075019091750180910C01981788F203C076
:10136000000001C0000089819A810F900F900F90BA
:101370000F90DF91CF910895CF93DF9300D0CDB739
:10138000DEB79A8389830E947203882F90E090933E
:10139000EC018093EB0189819A818130910591F074
:1013A00082309105A1F0009701F58091EB019091B9
:1013B000EC0121E0009709F420E0822F90E09A836D
:1013C000898316C082E090E09A83898311C080915E
:1013D000EB019091EC01009719F480E090E002C0DD
:1013E00082E090E09A83898303C01A821982000008
:1013F00089819A818130910541F08230910509F40B
:10140000A1C0009709F4A0C0A0C08091EB01909109
:10141000EC0185339105F1F480917601813108F476
:1014200090C08091760120E040E2682F81E00E9428
:101430003F058091760180518093760180917601FD
:1014400021E040E0682F81E00E943F0580E00E949B
:101450002C037BC08091EB019091EC0188339105C6
:10146000F1F480917601813108F06BC080917601B2
:1014700020E040E2682F81E00E943F0580917601E4
:10148000805F809376018091760121E040E0682FB3
:1014900081E00E943F0580E00E942C0356C08091AD
:1014A000EB019091EC018933910519F5809176015A
:1014B000803109F446C0809176018F3109F441C032
:1014C0008091760120E040E2682F81E00E943F0594
:1014D000809176018F5F809376018091760121E083
:1014E00040E0682F81E00E943F0580E00E942C03CD
:1014F0002CC08091EB019091EC018733910509F5A7
:10150000809176018130E9F0809176018131C9F0D6
:101510008091760120E040E2682F81E00E943F0543
:10152000809176018150809376018091760121E04F
:1015300040E0682F81E00E943F0580E00E942C037C
:1015400004C003C0000001C0000089819A810F908F
:101550000F90DF91CF910895CF93DF9300D0CDB757
:10156000DEB79A83898389819A8181309105D9F088
:10157000823091051CF4009741F03AC08230910509
:10158000B9F08330910589F133C0809104019091C5
:101590000501FC018081833029F481E090E09A8389
:1015A000898329C028C082E090E09A83898323C080
:1015B0008091040190910501FC018081833049F400
:1015C0008091EF018D3328F083E090E09A83898346
:1015D0000BC08091040190910501FC018081833052
:1015E00019F01A82198207C006C01A82198203C034
:1015F0001A821982000089819A818130910551F007
:1016000082309105ECF08230910539F083309105FC
:1016100051F017C01092EF0114C08091EF018F5F5D
:101620008093EF010EC08091040190910501FC01AF
:101630008081833021F481E08093ED0102C001C0FC
:10164000000089819A810F900F90DF91CF910895CA
:101650000F931F93CF93DF93CDB7DEB728970FB6C5
:10166000F894DEBF0FBECDBF87E290E02FEFFC0104
:10167000208388E290E0FC0110828AE290E02FEF64
:10168000FC0120838BE290E0FC01108281E290E07B
:1016900020EFFC01208382E290E02FE0FC01208318
:1016A0000E9465050E94870260E081E090E00E9450
:1016B000470D60E082E090E00E94470D84E090E0FA
:1016C0009C838B831092F00185E090E0A0E0B0E075
:1016D0008093F1019093F201A093F301B093F40190
:1016E0008091F1019091F201A091F301B091F40188
:1016F0008093F5019093F601A093F701B093F80160
:1017000080EC96E09093FA018093F9011092FB012E
:1017100085E090E0A0E0B0E08093FC019093FD01B3
:10172000A093FE01B093FF018091FC019091FD0117
:10173000A091FE01B091FF018093000290930102FD
:10174000A0930202B09303028BEC98E09093050201
:10175000809304021092060285E090E0A0E0B0E0E1
:101760008093070290930802A0930902B0930A02A3
:101770008091070290910802A0910902B0910A029B
:1017800080930B0290930C02A0930D02B0930E0273
:101790008CEB99E09093100280930F02109211024B
:1017A00084E190E0A0E0B0E08093120290931302F5
:1017B000A0931402B093150280911202909113022B
:1017C000A0911402B0911502809316029093170213
:1017D000A0931802B09319028CEA9AE090931B022E
:1017E00080931A028091040190910501FC0181818E
:1017F0009281A381B4818D839E83AF83B8878D81CD
:101800009E81AF81B885BC01CD010E9466040E9413
:1018100093041A8219827FC089819A81880F991F47
:101820008C5F9E4FFC0180819181FC012581368176
:101830004781508589819A81880F991F8C5F9E4FBF
:10184000FC0180819181FC0181819281A381B4811D
:10185000281739074A075B07A9F589819A81880FFC
:10186000991F8C5F9E4FFC010081118189819A81B3
:10187000880F991F8C5F9E4FFC0180819181FC0134
:101880002185328589819A81880F991F8C5F9E4FAF
:10189000FC0180819181FC018081992787FD9095D1
:1018A000F9010995F801808389819A81880F991F30
:1018B0008C5F9E4FFC0180819181FC011582168214
:1018C0001782108689819A81880F991F8C5F9E4F9D
:1018D000FC016081718189819A81880F991F8C5FD9
:1018E0009E4FFC0180819181FC01258136814781D9
:1018F00050858D819E81AF81B885820F931FA41F73
:10190000B51FFB0185839683A783B08789819A8160
:1019100001969A83898329813A818B819C8128173A
:10192000390708F479CF00008091E4018823E1F3BE
:101930001092E4016ECF97FB072E16F4009407D0A7
:1019400077FD09D00E94D10C07FC05D03EF490959C
:1019500081959F4F0895709561957F4F0895A1E2FD
:101960001A2EAA1BBB1BFD010DC0AA1FBB1FEE1F19
:10197000FF1FA217B307E407F50720F0A21BB30B64
:10198000E40BF50B661F771F881F991F1A9469F7E0
:1019900060957095809590959B01AC01BD01CF013C
:1019A0000895AA1BBB1B51E107C0AA1FBB1FA617A6
:1019B000B70710F0A61BB70B881F991F5A95A9F7F8
:1019C00080959095BC01CD0108958F929F92AF9222
:1019D000BF92CF92DF92EF92FF92CF93DF93EC0111
:1019E000688179818A819B816115710581059105E5
:1019F00021F464E279ED8BE597E02DE133EF41E0EE
:101A000050E00E94680D49015A019B01AC01A7EA10
:101A1000B1E40E94550D6B017C01ACEEB4EFA50161
:101A200094010E94630DDC01CB018C0D9D1DAE1D48
:101A3000BF1DB7FF03C00197A109B04888839983F0
:101A4000AA83BB839F77DF91CF91FF90EF90DF90C8
:101A5000CF90BF90AF909F908F9008950C94E50C1D
:101A600087E791E00C94E50CA0E0B0E0809377016B
:101A700090937801A0937901B0937A010895F99930
:101A8000FECF92BD81BDF89A992780B50895262F83
:101A9000F999FECF1FBA92BD81BD20BD0FB6F89453
:101AA000FA9AF99A0FBE019608950E94870DA59F94
:101AB000900DB49F900DA49F800D911D1124089549
:101AC000B7FF0C94550D0E94550D821B930B089582
:101AD000052E97FB1EF400940E947F0D57FD07D042
:101AE0000E94AF0C07FC03D04EF40C947F0D509570
:101AF0004095309521953F4F4F4F5F4F08959095FA
:101B00008095709561957F4F8F4F9F4F0895A29F4D
:101B1000B001B39FC001A39F700D811D1124911DC1
:101B2000B29F700D811D1124911D0895F894FFCF6F
:101B300001000000F001FB010602110208010A0683
:101B40000E030405061718191A0000000000000013
:101B50000000000000000000000000000000000085
:101B60000000000000000000000000000000000075
:101B70000000000000000000000000000000000065
:101B80000000000000000000000000000000000055
:101B90000000000000000000000000000000000045
:101BA000000000000001110100000000000F1516E8
:101BB0001E1F1F00000F15171F1F1F000000000031
:101BC0000705071F1F1F1F1F1F1F1F0000040A11EB
:101BD0000A04005072657373203120746F2073748F
:101BE000617274202020202020202020202020200E
:101BF00020202000596F75722053636F72653A2060
:101C00002020202020486967686573743A2000000E
:041C100000000000D0
:00000001FF
